{
  "contractName": "crud",
  "abi": [
    {
      "constant": true,
      "inputs": [],
      "name": "nextId",
      "outputs": [
        {
          "internalType": "uint256",
          "name": "",
          "type": "uint256"
        }
      ],
      "payable": false,
      "stateMutability": "view",
      "type": "function"
    },
    {
      "constant": true,
      "inputs": [
        {
          "internalType": "uint256",
          "name": "",
          "type": "uint256"
        }
      ],
      "name": "users",
      "outputs": [
        {
          "internalType": "uint256",
          "name": "id",
          "type": "uint256"
        },
        {
          "internalType": "string",
          "name": "name",
          "type": "string"
        }
      ],
      "payable": false,
      "stateMutability": "view",
      "type": "function"
    },
    {
      "constant": false,
      "inputs": [
        {
          "internalType": "string",
          "name": "name",
          "type": "string"
        }
      ],
      "name": "create",
      "outputs": [],
      "payable": false,
      "stateMutability": "nonpayable",
      "type": "function"
    },
    {
      "constant": true,
      "inputs": [
        {
          "internalType": "uint256",
          "name": "id",
          "type": "uint256"
        }
      ],
      "name": "read",
      "outputs": [
        {
          "internalType": "uint256",
          "name": "",
          "type": "uint256"
        },
        {
          "internalType": "string",
          "name": "",
          "type": "string"
        }
      ],
      "payable": false,
      "stateMutability": "view",
      "type": "function"
    },
    {
      "constant": false,
      "inputs": [
        {
          "internalType": "uint256",
          "name": "id",
          "type": "uint256"
        },
        {
          "internalType": "string",
          "name": "name",
          "type": "string"
        }
      ],
      "name": "update",
      "outputs": [],
      "payable": false,
      "stateMutability": "nonpayable",
      "type": "function"
    },
    {
      "constant": false,
      "inputs": [
        {
          "internalType": "uint256",
          "name": "id",
          "type": "uint256"
        }
      ],
      "name": "deletE",
      "outputs": [],
      "payable": false,
      "stateMutability": "nonpayable",
      "type": "function"
    }
  ],
  "bytecode": "0x60806040526001805534801561001457600080fd5b50610943806100246000396000f3fe608060405234801561001057600080fd5b50600436106100625760003560e01c8063365b98b21461006757806361b8ce8c14610115578063911925da14610133578063b6a46b3b14610161578063ed2e5a971461021c578063f745630f146102ca575b600080fd5b6100936004803603602081101561007d57600080fd5b810190808035906020019092919050505061038f565b6040518083815260200180602001828103825283818151815260200191508051906020019080838360005b838110156100d95780820151818401526020810190506100be565b50505050905090810190601f1680156101065780820380516001836020036101000a031916815260200191505b50935050505060405180910390f35b61011d610458565b6040518082815260200191505060405180910390f35b61015f6004803603602081101561014957600080fd5b810190808035906020019092919050505061045e565b005b61021a6004803603602081101561017757600080fd5b810190808035906020019064010000000081111561019457600080fd5b8201836020820111156101a657600080fd5b803590602001918460018302840111640100000000831117156101c857600080fd5b91908080601f016020809104026020016040519081016040528093929190818152602001838380828437600081840152601f19601f8201169050808301925050505050505091929192905050506104cc565b005b6102486004803603602081101561023257600080fd5b810190808035906020019092919050505061054f565b6040518083815260200180602001828103825283818151815260200191508051906020019080838360005b8381101561028e578082015181840152602081019050610273565b50505050905090810190601f1680156102bb5780820380516001836020036101000a031916815260200191505b50935050505060405180910390f35b61038d600480360360408110156102e057600080fd5b81019080803590602001909291908035906020019064010000000081111561030757600080fd5b82018360208201111561031957600080fd5b8035906020019184600183028401116401000000008311171561033b57600080fd5b91908080601f016020809104026020016040519081016040528093929190818152602001838380828437600081840152601f19601f820116905080830192505050505050509192919290505050610670565b005b6000818154811061039c57fe5b9060005260206000209060020201600091509050806000015490806001018054600181600116156101000203166002900480601f01602080910402602001604051908101604052809291908181526020018280546001816001161561010002031660029004801561044e5780601f106104235761010080835404028352916020019161044e565b820191906000526020600020905b81548152906001019060200180831161043157829003601f168201915b5050505050905082565b60015481565b6000610469826106dc565b9050816000828154811061047957fe5b90600052602060002090600202016000015414156104c8576000818154811061049e57fe5b90600052602060002090600202016000808201600090556001820160006104c591906107a1565b50505b5050565b60006040518060400160405280600154815260200183815250908060018154018082558091505090600182039060005260206000209060020201600090919290919091506000820151816000015560208201518160010190805190602001906105369291906107e9565b5050505060016000815480929190600101919050555050565b60006060600061055e846106dc565b9050836000828154811061056e57fe5b9060005260206000209060020201600001541415610669576000818154811061059357fe5b906000526020600020906002020160000154600082815481106105b257fe5b9060005260206000209060020201600101808054600181600116156101000203166002900480601f0160208091040260200160405190810160405280929190818152602001828054600181600116156101000203166002900480156106585780601f1061062d57610100808354040283529160200191610658565b820191906000526020600020905b81548152906001019060200180831161063b57829003601f168201915b50505050509050925092505061066b565b505b915091565b600061067b836106dc565b9050826000828154811061068b57fe5b90600052602060002090600202016000015414156106d75781600082815481106106b157fe5b906000526020600020906002020160010190805190602001906106d5929190610869565b505b505050565b600080600090505b60008054905081101561072d5782600082815481106106ff57fe5b9060005260206000209060020201600001541415610720578091505061079c565b80806001019150506106e4565b506040517f08c379a00000000000000000000000000000000000000000000000000000000081526004018080602001828103825260148152602001807f5573657220646f6573206e6f742065786973742100000000000000000000000081525060200191505060405180910390fd5b919050565b50805460018160011615610100020316600290046000825580601f106107c757506107e6565b601f0160209004906000526020600020908101906107e591906108e9565b5b50565b828054600181600116156101000203166002900490600052602060002090601f016020900481019282601f1061082a57805160ff1916838001178555610858565b82800160010185558215610858579182015b8281111561085757825182559160200191906001019061083c565b5b50905061086591906108e9565b5090565b828054600181600116156101000203166002900490600052602060002090601f016020900481019282601f106108aa57805160ff19168380011785556108d8565b828001600101855582156108d8579182015b828111156108d75782518255916020019190600101906108bc565b5b5090506108e591906108e9565b5090565b61090b91905b808211156109075760008160009055506001016108ef565b5090565b9056fea265627a7a723158202e36c60a4799c004a2e1eaddfe6a8d504ff97a9f54b9bb41e01be20403c2e11564736f6c63430005100032",
  "source": "pragma solidity >=0.4.22 <0.9.0;\n\ncontract crud {\n  //state variables\n  struct User{\n    uint id;\n    string name;\n  }\n\n  User[] public users;\n  uint public nextId =1;\n\n  //create function\n  function create(string memory name)public {\n    users.push(User(nextId, name));\n    nextId++;\n  }\n\n  //read function\n  function read(uint id) public view returns(uint, string memory){\n    uint i = find(id);\n    if(users[i].id == id){\n      return(users[i].id, users[i].name);\n    }\n  }\n  \n\n  //update function\n  function update(uint id, string memory name) public {\n    uint i = find(id);\n    if(users[i].id == id){\n      users[i].name = name;\n    }\n    \n  }\n\n  //delete function \n  function deletE(uint id) public {\n    uint i = find(id);\n    if(users[i].id == id){\n      delete users[i];\n    }\n    \n  }\n\n  //find i \n  function find(uint id) view internal returns(uint){\n    for (uint i=0; i< users.length; i++){\n      if(users[i].id == id){\n        return i;\n      }\n    }\n    revert('User does not exist!');\n  }\n}\n",
  "sourcePath": "/Users/aysha/Desktop/coding_projects/crud_smartcontract/contracts/Crud.sol",
  "compiler": {
    "name": "solc",
    "version": "0.5.16+commit.9c3226ce.Emscripten.clang"
  },
  "schemaVersion": "3.4.4",
  "updatedAt": "2022-01-24T17:06:15.259Z",
  "networkType": "ethereum",
  "devdoc": {
    "methods": {}
  },
  "userdoc": {
    "methods": {}
  }
}